:020000040800F2
:10000000402000108D110008ED110008ED110008CE
:10001000ED110008ED110008ED11000800000000CE
:10002000000000000000000000000000ED110008CA
:10003000ED11000800000000ED110008ED110008AE
:10004000ED110008ED110008ED110008ED11000898
:10005000ED110008ED110008ED110008ED11000888
:10006000ED110008ED110008ED110008ED11000878
:10007000ED110008ED110008ED110008ED11000868
:10008000FD0F0008610D0008ED110008ED110008DA
:10009000ED110008ED110008ED110008ED11000848
:1000A000ED110008ED110008ED110008ED11000838
:1000B000ED110008ED110008ED110008ED11000828
:1000C000ED110008ED110008ED110008ED11000818
:1000D000ED110008ED110008ED110008ED11000808
:1000E000ED110008ED110008ED110008ED110008F8
:1000F000ED110008ED110008ED110008ED110008E8
:10010000ED110008ED110008ED110008ED110008D7
:10011000ED110008ED110008ED110008ED110008C7
:10012000ED110008ED110008ED110008ED110008B7
:10013000ED110008ED110008ED110008ED110008A7
:10014000ED110008ED110008ED110008ED11000897
:10015000ED110008ED110008ED110008ED11000887
:10016000ED110008ED110008ED110008ED11000877
:10017000ED110008ED110008ED110008ED11000867
:10018000ED110008ED11000810B5054C237833B9C6
:10019000044B13B10448AFF300800123237010BD5A
:1001A000F004002000000000E4A9000808B5034B9B
:1001B0001BB103490348AFF3008008BD00000000F5
:1001C000F4040020E4A90008154B002B08BF134BD2
:1001D0009D46A3F5803A00218B460F461348144AEA
:1001E000121A0AF08EFA0F4B002B00D098470E4BD4
:1001F000002B00D098470020002104000D000D487E
:10020000002802D00C48AFF300800AF04BFA20001F
:10021000290000F0F9FC0AF031FA00BF00000800E4
:10022000402000100000000000000000F00400204A
:10023000E8150020000000000000000080B584B038
:1002400000AFB880084611461A460346FB700B46BD
:10025000BB7013467B70FB1C0121184600F0B2FBFB
:100260000346FB73FB7B002B01D0FB7B36E03B7925
:10027000BB7307F10E030121184600F0A3FB0346F0
:10028000FB73FB7B002B01D0FB7B27E07B79BB73EF
:1002900007F10E030121184600F094FB0346FB739F
:1002A000FB7B002B01D0FB7B18E0BB1C0121184617
:1002B00000F088FB0346FB73FB7B002B01D0FB7B2C
:1002C0000CE07B1C0121184600F07CFB0346FB730D
:1002D000FB7B002B01D0FB7B00E0FB7B184610373B
:1002E000BD4680BD80B582B000AF0123BB71BB1D90
:1002F0000121184600F066FB0346FB71FB79002BD9
:1003000001D0FB7909E000F0B3FB0346FB71FB79F8
:10031000002B01D0FB7900E0FB7918460837BD4679
:1003200080BD000090B583B000AF0523BB71BB1D3D
:100330000121184600F046FB0346FB71FB79002BB8
:1003400001D0FB7945E00023BB71BB1D012118469C
:1003500000F038FB0346FB71FB79002B01D0FB79E1
:1003600037E01E4B5B6BDAB21D4B1A7001211C4843
:1003700000F028FB0346FB71FB79002B01D0FB79D1
:1003800027E0174B1B78002B19D0144B5B6BD9B2AD
:10039000144B5B6BDCB2144B1A785B781B02134373
:1003A000002063F30F0023460A460121FFF746FFB2
:1003B0000346FB71FB79002B01D0FB7909E000F0CB
:1003C00057FB0346FB71FB79002B01D0FB7900E062
:1003D000FB7918460C37BD4690BD00BF7415002050
:1003E0000C05002048A70008BC15002090B583B07C
:1003F00000AF0023FB710023BB71BB1D0121184618
:1004000000F0E0FA0346FB71FB79002B01D0FB7989
:1004100071E03B4B1B68D9B23A4B1B68DCB23A4BDC
:100420001A785B781B021343002063F30F00234606
:100430000A460021FFF702FF0346FB71FB79002B00
:1004400001D0FB7957E02E4B5B68D9B22D4B5B682E
:10045000DCB22D4B9A78DB781B021343002063F348
:100460000F0023460A460121FFF7E8FE0346FB7111
:10047000FB79002B01D0FB793DE0214B9B68D9B281
:10048000204B9B68DCB2204B1A795B791B0213432B
:10049000002063F30F0023460A460221FFF7CEFE39
:1004A0000346FB71FB79002B01D0FB7923E0144B51
:1004B000DB68D9B2134BDB68DCB2134B9A79DB797A
:1004C0001B021343002063F30F0023460A46032157
:1004D000FFF7B4FE0346FB71FB79002B01D0FB79DB
:1004E00009E000F0C5FA0346FB71FB79002B01D04F
:1004F000FB7900E0FB7918460C37BD4690BD00BF84
:100500007415002048A70008C015002090B583B0DE
:1005100000AF0023FB710123BB71BB1D01211846F5
:1005200000F050FA0346FB71FB79002B01D0FB79F8
:1005300071E03B4B1B6BD9B23A4B1B6BDCB23A4BB5
:100540009A7EDB7E1B021343002063F30F002346D9
:100550000A460A21FFF772FE0346FB71FB79002B66
:1005600001D0FB7957E02E4B1B69D9B22D4B1B698B
:10057000DCB22D4B1A7A5B7A1B021343002063F323
:100580000F0023460A460421FFF758FE0346FB717D
:10059000FB79002B01D0FB793DE0214B5B69D9B29F
:1005A000204B5B69DCB2204B9A7ADB7A1B02134347
:1005B000002063F30F0023460A460521FFF73EFEA5
:1005C0000346FB71FB79002B01D0FB7923E0144B30
:1005D0009B69D9B2134B9B69DCB2134B1A7B5B7BD3
:1005E0001B021343002063F30F0023460A46062133
:1005F000FFF724FE0346FB71FB79002B01D0FB794A
:1006000009E000F035FA0346FB71FB79002B01D0BD
:10061000FB7900E0FB7918460C37BD4690BD00BF62
:100620007415002048A70008C015002090B583B0BD
:1006300000AF0023FB710223BB71BB1D01211846D3
:1006400000F0C0F90346FB71FB79002B01D0FB7968
:1006500057E02E4BDB69D9B22D4BDB69DCB22D4B59
:100660009A7BDB7B1B021343002063F30F002346BE
:100670000A460721FFF7E2FD0346FB71FB79002BD9
:1006800001D0FB793DE0214B1B6AD9B2204B1B6A9C
:10069000DCB2204B1A7C5B7C1B021343002063F30B
:1006A0000F0023460A460821FFF7C8FD0346FB71E9
:1006B000FB79002B01D0FB7923E0144B5B6AD9B2A4
:1006C000134B5B6ADCB2134B9A7CDB7C1B0213433B
:1006D000002063F30F0023460A460921FFF7AEFD11
:1006E0000346FB71FB79002B01D0FB7909E000F098
:1006F000BFF90346FB71FB79002B01D0FB7900E0C9
:10070000FB7918460C37BD4690BD00BF741500201C
:1007100048A70008C015002090B583B000AF0023A3
:10072000FB710323BB71BB1D0121184600F04AF980
:100730000346FB71FB79002B01D0FB7957E02E4B70
:1007400093F828102D4B93F828402D4B1A7D5B7D94
:100750001B021343002063F30F0023460A460D21BA
:10076000FFF76CFD0346FB71FB79002B01D0FB7991
:100770003DE0214B93F82910204B93F82940204B62
:100780009A7DDB7D1B021343002063F30F00234699
:100790000A460C21FFF752FD0346FB71FB79002B43
:1007A00001D0FB7923E0144BDB6AD9B2134BDB6A2F
:1007B000DCB2134B1A7E5B7E1B021343002063F3F3
:1007C0000F0023460A460B21FFF738FD0346FB7155
:1007D000FB79002B01D0FB7909E000F049F90346D1
:1007E000FB71FB79002B01D0FB7900E0FB79184607
:1007F0000C37BD4690BD00BF7415002048A7000807
:10080000C015002090B583B000AF0023FB71042316
:10081000BB71BB1D0121184600F0D4F80346FB71E3
:10082000FB79002B01D0FB7959E02F4BDB6BD9B260
:100830002E4BDB6BDCB22E4B1A7F5B7F1B0213430C
:10084000002063F30F0023460A460E21FFF7F6FC53
:100850000346FB71FB79002B01D0FB793FE0224B73
:100860001B6CD9B2214B1B6CDCB2214B9A7FDB7F16
:100870001B021343002063F30F0023460A460F2197
:10088000FFF7DCFC0346FB71FB79002B01D0FB7901
:1008900025E0154B5B6CD9B2144B5B6CDCB2144B8E
:1008A00093F8202093F821301B021343002063F3B8
:1008B0000F0023460A461021FFF7C0FC0346FB71D8
:1008C000FB79002B01D0FB7909E000F0D1F8034659
:1008D000FB71FB79002B01D0FB7900E0FB79184616
:1008E0000C37BD4690BD00BF7415002048A7000816
:1008F000C015002080B582B000AF0623BB7105F0A3
:1009000069FEFFF7EFFC0346FB71FB79002B01D07A
:10091000FB7946E0FFF706FD0346FB71FB79002BF0
:1009200001D0FB793DE0FFF761FD0346FB71FB79E8
:10093000002B01D0FB7934E0FFF7E8FD0346FB71A3
:10094000FB79002B01D0FB792BE0FFF76FFE03460C
:10095000FB71FB79002B01D0FB7922E0FFF7DCFE75
:100960000346FB71FB79002B01D0FB7919E0FFF7FF
:1009700049FF0346FB71FB79002B01D0FB7910E0A6
:10098000BB1D0121184600F01DF80346FB71FB79E1
:10099000002B01D0FB7904E000F06AF80346FB71FC
:1009A000FB7918460837BD4680BD80B500AFFFF71C
:1009B000A1FF0346002B01D0012300E000231846CD
:1009C00080BD000080B586B000AF7860396000233C
:1009D000FB751B233B613B68FB60134B1B881A466E
:1009E000FB6813443A699A4203D20223FB75FB7DEC
:1009F00015E00E4B1B68FA687968184609F076FE18
:100A0000FB689AB2084B1B8813449AB2064B1A80B3
:100A1000064B1A68FB681344044A1360FB7D1846B2
:100A20001837BD4680BD00BF180500201405002002
:100A300080B500AF20210B4800F052F80346002B90
:100A400001D101230BE0074B1B68184600F05AF850
:100A50000246054B1A60054B00221A8000231846F7
:100A600080BD00BF100500201405002018050020DF
:100A700080B500AF0C4B1A680C4B1B88194610460A
:100A800000F04EF803461A4600239A4201D1022391
:100A900007E0FFF7CDFF0346002B01D0022300E063
:100AA0000023184680BD00BF100500201805002057
:100AB00080B500AF00F00CF803461A4601239A42B5
:100AC00001D0012302E0FFF7B3FF0346184680BDC3
:100AD00080B400AF01231846BD465DF8047B704723
:100AE00080B483B000AF78600B467B807B68044A9B
:100AF0001A60012318460C37BD465DF8047B704729
:100B00001C05002080B483B000AF7860034B18460A
:100B10000C37BD465DF8047B704700BF21050020FF
:100B200080B582B000AF78600B467B807B881A4628
:100B30000321786802F0D8FC0346DBB21846083778
:100B4000BD4680BD80B485B000AF78600023FB73E4
:100B50000023BB730F237B737B68DB78002B39D0BA
:100B6000274BDB68DB431B0ADBB203F00703FB7395
:100B7000FB7BC3F10403BB737A7BFB7B42FA03F379
:100B80007B737B685B781A46BB7B02FA03F3FB73CB
:100B90007B689A787B7B1340DAB2FB7B1343FB7351
:100BA000FB7B1B01FB73174A7B681B781344FA7BA2
:100BB00083F800237B681B7803F01F0311497A68D0
:100BC00012785209D2B21046012202FA03F341F818
:100BD00020300FE07B681B7803F01F0309497A6817
:100BE00012785209D2B2104601229A4000F1200335
:100BF00041F8232000BF1437BD465DF8047B7047E1
:100C000000ED00E000E100E080B584B000AF00231B
:100C1000FB7301233B600023BB6001F049F8002314
:100C20007B607968B86802F023FC0346FB73FB7BAA
:100C3000002B12D000BF3B68002BFCD10DE002F06E
:100C4000B1FB0346FB73FB7B002B06D0FB7B022B27
:100C500003D000BF3B68002BFCD13B68002BEED1DA
:100C6000FB7B18461037BD4680BD000080B582B0C2
:100C700000AF78603960144B144A1A60124B00229E
:100C80009A80134B134A1A60114B00229A80104B22
:100C90000022DA800E4B00225A6401210E4800F037
:100CA00071FE01214FF4003000F08CFE00F0B4F82A
:100CB00000F026F94FF4E12000F0B4F901231846C2
:100CC0000837BD4680BD00BF401100204005002010
:100CD00048110020400D00200100200080B584B0A4
:100CE00000AFF860B9607A603B6000BF194800F05F
:100CF000D6FB0346002BF9D17B68B3F5806F28BF84
:100D00004FF480637B60144B1B687A68B96818469F
:100D100009F0ECFC7B689BB21A460F4B9A610E4BB4
:100D20001B681A460C4B1A610C490A4800F036FB46
:100D300001221021074800F0CAFB0121054800F0FC
:100D400085FB3B687A681A60002318461037BD4659
:100D500080BD00BFA060024048110020501100205B
:100D600080B500AF0649074800F0ECFB0346002BB6
:100D700003D00349034800F03DFC00BF80BD00BF25
:100D800000802020A060024080B588B000AFF860ED
:100D9000B9607A603B6000F009F903461A467B6847
:100DA00093422FD81B4B9B88FB821A4B1B683B61DD
:100DB000BB68BB610023FB6110E0FB8A3A691A44FF
:100DC000BB69591CB96112781A70FB8A01339BB256
:100DD000C3F30A03FB82FB690133FB61FB697A6899
:100DE0009A42EAD80B4B9B889AB27B689BB2134419
:100DF0009BB2C3F30A039AB2064B9A803B687A68A7
:100E00001A6002E03B6800221A600023184620376F
:100E1000BD4680BD4011002080B592B000AF334880
:100E200000F0E8F900BF314800F039FB0346002B21
:100E3000F9D14FF000637B6000233B612C4B1B68B2
:100E4000FB604FF400637B612A4BBB600023BB61F6
:100E50004FF48063FB6100233B6200237B624FF40D
:100E60008073BB624FF44033FB6200233B63032378
:100E70007B630023BB630023FB633B1D19461B48B8
:100E800000F08CFA102387F84030002387F84130B7
:100E9000002387F84230012387F8433007F14003ED
:100EA0001846FFF74FFE01221021104800F00FFBFB
:100EB00001210E4800F0CAFA0F4B7B6400BF0B48BB
:100EC00000F0EDFA0346012B04D07B6C5A1E7A64C5
:100ED000002BF4DC7B6C002B04DC084B4FF0FF3262
:100EE0001A60FEE700BF4837BD4680BD88600240FB
:100EF000401100200444004040420F003C05002007
:100F000080B582B000AF264800F074F900BF2448D5
:100F100000F0C5FA0346002BF9D1224B4FF00062D6
:100F20009A60204B40225A611E4B1B681A461D4B8B
:100F30001A611C4B01229A611A4B1B4ADA60194B49
:100F40000022DA61174B4FF480621A62154B0022BF
:100F50005A62144B00229A62124B0022DA62114B41
:100F60004FF440321A630F4B00225A630D4B032299
:100F70009A630C4B0022DA630A4B00221A64112395
:100F80003B7100237B710023BB710123FB713B1D6F
:100F90001846FFF7D7FD00BF0837BD4680BD00BF2C
:100FA000A0600240481100200444004080B582B097
:100FB00000AF104800F066FA0346C3F500637B609B
:100FC0000D4B9B889BB21A467B68934206DB0A4B0B
:100FD0009B889BB21A467B689B1A06E0064B9B884F
:100FE0009BB2C3F500627B68134418460837BD46C0
:100FF00080BD00BF886002404011002080B500AF76
:101000000649074800F09EFA0346002B03D0034927
:10101000034800F0EFFA00BF80BD00BF0088002049
:101020008860024080B588B000AF786007F118038F
:10103000184600F09BFB0C23BB6102233B77002387
:10104000BB770123FB7702237B7707F1180319464F
:101050001A4800F0FDFA07220221184800F0A0FB10
:1010600007220321154800F09BFB07F108031846EF
:1010700000F082FD7B68BB600023BB810023FB8105
:1010800000233B820023BB820C237B8207F10803F1
:1010900019460B4800F0B6FC01224021084800F038
:1010A000A8FD01228021064800F0A3FD012104488B
:1010B00000F07FFD00BF2037BD4680BD000002402C
:1010C0000044004080B58AB000AFF860B9607A6033
:1010D00000237B62BB683B624FF0FF33FB611BE088
:1010E0007A68FB69934228BF1346BB6107F114037A
:1010F000BA69396AF868FFF7F1FD78627B6AB3F183
:10110000FF3F01D17B6A0BE07B697A68D31A7B6071
:101110007B693A6A13443B627B68002BE0D17B6AAF
:1011200018462837BD4680BD80B58AB000AFF8604C
:10113000B9607A6000237B62BB683B624FF0FF338B
:10114000FB611BE07A68FB69934228BF1346BB61D1
:1011500007F11403BA69396AF868FFF715FE786277
:101160007B6AB3F1FF3F01D17B6A0BE07B697A6850
:10117000D31A7B607B693A6A13443B627B68002B1D
:10118000E0D17B6A18462837BD4680BD80B582B065
:1011900000AF114B7B60114B3B6007E07A68131D79
:1011A0007B603B68191D396012681A603B680C4A05
:1011B0009342F3D30B480C494FF000028842B8BF6A
:1011C00040F8042BFADB00F03DFDFEF7FDFF00BF09
:1011D0000837BD4680BD00BFECA900080000002014
:1011E000F0040020F0040020E815002080B400AFD7
:1011F000FEE7000080B483B000AF78607B681B68B6
:1012000023F001027B681A607B6800221A607B6809
:1012100000225A607B6800229A607B680022DA60B4
:101220007B6800221A617B6821225A617B68464AEA
:10123000934203D1454B3D229A607EE07B68444A4D
:10124000934204D1414B4FF474629A6075E07B681D
:10125000404A934204D13D4B4FF474129A606CE0C3
:101260007B683D4A934204D1384B4FF074629A60D8
:1012700063E07B68394A934203D1344B384ADA60E1
:101280005BE07B68374A934203D1304B364ADA60E1
:1012900053E07B68354A934203D12C4B344ADA60E1
:1012A0004BE07B68334A934204D1284B4FF03D52C8
:1012B000DA6042E07B68304A934203D12F4B3D22F3
:1012C0009A603AE07B682E4A934204D12B4B4FF44C
:1012D00074629A6031E07B682A4A934204D1274BBA
:1012E0004FF474129A6028E07B68274A934204D135
:1012F000224B4FF074629A601FE07B68234A93424E
:1013000003D11E4B164ADA6017E07B68204A9342ED
:1013100003D11A4B144ADA600FE07B681D4A9342EE
:1013200003D1164B124ADA6007E07B681A4A9342EF
:1013300003D1124B4FF03D52DA6000BF0C37BD466F
:101340005DF8047B704700BF1060024000600240FF
:1013500028600240406002405860024070600240D5
:101360003D00002088600240400F0020A060024045
:1013700000003D20B860024010640240006402405A
:101380002864024040640240586402407064024095
:1013900088640240A0640240B864024080B485B012
:1013A00000AF786039600023FB607B681B68FB60DE
:1013B000FA68254B1340FB603B681A683B68DB68A2
:1013C0001A433B685B691A433B689B691A433B6855
:1013D000DB691A433B681B6A1A433B685B6A1A4322
:1013E0003B689B6A1A433B685B6B1A433B689B6B89
:1013F0001343FA681343FB607B68FA681A607B68E2
:101400005B69FB60FB6823F00703FB603B68DA6AFB
:101410003B681B6B1343FA681343FB607B68FA68F5
:101420005A613B681A697B685A603B685A687B68F6
:101430009A603B689A687B68DA6000BF1437BD46E3
:101440005DF8047B704700BF3F801CF080B483B020
:1014500000AF78600B46FB70FB78002B06D07B68F2
:101460001B6843F001027B681A6005E07B681B681B
:1014700023F001027B681A6000BF0C37BD465DF89F
:10148000047B704780B483B000AF78607B685B6892
:101490009BB218460C37BD465DF8047B704780B49C
:1014A00085B000AF78600023FB737B681B6803F096
:1014B0000103002B02D00123FB7301E00023FB7327
:1014C000FB7B18461437BD465DF8047B704780B43B
:1014D00085B000AFF860B9601346FB71BB6803F0DC
:1014E0008003002B0FD0FB79002B06D0FB685B69D3
:1014F00043F08002FB685A6105E0FB685B6923F0FA
:101500008002FB685A61BB68802B14D0FB79002BEA
:1015100008D0FB681A68BB6803F01E031A43FB6817
:101520001A6008E0FB681A68BB6803F01E03DB431F
:101530001A40FB681A6000BF1437BD465DF8047B93
:101540007047000080B487B000AF78603960002336
:10155000FB750023FB600023BB607B68224A93423B
:1015600002D8224B3B6101E0214B3B613B6823F0F9
:10157000F02323F0C313002B0AD03B68DB0A03F0EF
:101580001E03FB607B681B68FA681340BB6004E0C5
:101590007B685B6903F08003BB603B6803F000532A
:1015A000002B03D03B695B68FB6002E03B691B6872
:1015B000FB60FB6823F0F02323F08213FB60FA68E2
:1015C0003B681340002B05D0BB68002B02D00123E1
:1015D000FB7501E00023FB75FB7D18461C37BD46FB
:1015E0005DF8047B704700BF0F640240006002405A
:1015F0000064024080B485B000AF786039607B68D9
:10160000104A934202D8104BFB6001E00F4BFB6085
:101610003B6803F00053002B07D03B6823F0F02316
:1016200023F08213FA68D36006E03B6823F0F023CE
:1016300023F08213FA68936000BF1437BD465DF84B
:10164000047B70470F640240006002400064024067
:1016500080B487B000AF7860396000237B610023DD
:101660003B610023FB6000237B6176E001227B6904
:1016700002FA03F33B613B681B683A691340FB6065
:10168000FA683B699A4265D17B681A687B695B009E
:10169000032101FA03F3DB431A407B681A607B687D
:1016A0001A683B681B7919467B695B0001FA03F3F2
:1016B0001A437B681A603B681B79012B03D03B6897
:1016C0001B79022B2ED17B689A687B695B00032112
:1016D00001FA03F3DB431A407B689A607B689A68DF
:1016E0003B685B7919467B695B0001FA03F31A4397
:1016F0007B689A607B685A687B699BB219460123B4
:101700008B40DB431A407B685A607B685B683A68B1
:10171000927911467A6992B201FA02F292B21A43B0
:101720007B685A607B68DA687B699BB25B00032147
:1017300001FA03F3DB431A407B68DA607B68DA68FE
:101740003B68DB7919467B695B0001FA03F31A43B6
:101750007B68DA607B6901337B617B690F2B85D9FC
:1017600000BF1C37BD465DF8047B704780B483B072
:1017700000AF78607B684FF6FF721A607B680022CA
:101780001A717B6800225A717B6800229A717B680B
:101790000022DA7100BF0C37BD465DF8047B70474C
:1017A00080B485B000AF78600B467B8013467B70B9
:1017B0000023FB600023BB607A787B8803F007037B
:1017C0009B0002FA03F3FB607B88DB089BB21A469E
:1017D0007B68083253F822207B8803F007039B00C4
:1017E0000F2101FA03F3DB437988C90889B208465F
:1017F00002EA03017B6800F1080243F822107B88AB
:10180000DB089BB21A467B68083253F82230FA682C
:101810001343BB607B88DB089BB21A467B680832A7
:10182000B96843F8221000BF1437BD465DF8047B49
:101830007047000080B489B000AF78600023BB61BE
:1018400000237B610023FB6102233B610023FB60DB
:101850000223BB60474B9B6803F00C03BB61BB6971
:10186000042B07D0082B09D0002B3DD17B68424ABE
:101870001A603DE07B68414A1A6039E03D4B5B6885
:101880009B0D03F00103FB603A4B5B6803F03F03E1
:10189000BB60FB68002B0CD0384ABB68B2FBF3F38B
:1018A000344A52689209C2F3080202FB03F3FB6157
:1018B0000BE0314ABB68B2FBF3F32E4A526892093F
:1018C000C2F3080202FB03F3FB612A4B5B681B0CAB
:1018D00003F0030301335B003B61FA693B69B2FB30
:1018E000F3F27B681A6003E07B68234A1A6000BF4A
:1018F000204B9B6803F0F003BB61BB691B09BB6114
:101900001F4ABB6913441B78DBB27B617B681A6892
:101910007B69DA407B685A60164B9B6803F4E0539E
:10192000BB61BB699B0ABB61154ABB6913441B7849
:10193000DBB27B617B685A687B69DA407B689A60BE
:101940000C4B9B6803F46043BB61BB695B0BBB61E1
:101950000B4ABB6913441B78DBB27B617B685A6816
:101960007B69DA407B68DA6000BF2437BD465DF8EA
:10197000047B7047003802400024F40000127A0013
:101980000000002080B483B000AF78600B46FB708D
:10199000FB78002B06D00A4B1A6B09497B6813436E
:1019A0000B6306E0064B1A6B7B68DB43044913406C
:1019B0000B6300BF0C37BD465DF8047B704700BF6A
:1019C0000038024080B483B000AF78600B46FB70F3
:1019D000FB78002B06D00A4B1A6C09497B6813432D
:1019E0000B6406E0064B1A6C7B68DB43044913402A
:1019F0000B6400BF0C37BD465DF8047B704700BF29
:101A00000038024080B58AB000AF786039600023AA
:101A10007B6200233B620023FB610023BB617B6888
:101A20001B8A9BB27B627B6A23F440537B623B68D8
:101A3000DB881A467B6A13437B627B6A9AB27B68B7
:101A40001A827B689B899BB27B627B6A23F4B053CA
:101A500023F00C037B623B689A883B681B89134325
:101A60009AB23B685B8913439BB21A467B6A134365
:101A70007B627B6A9AB27B689A817B689B8A9BB205
:101A80007B627B6A23F440737B623B689B891A46C6
:101A90007B6A13437B627B6A9AB27B689A8207F106
:101AA00008031846FFF7C6FE7B68304A934203D00E
:101AB0007B682F4A934202D17B693B6201E03B691C
:101AC0003B627B689B899BB21BB2002B0CDA3A6AA3
:101AD00013469B0013449A001A443B681B685B0042
:101AE000B2FBF3F3FB610BE03A6A13469B0013442D
:101AF0009A001A443B681B689B00B2FBF3F3FB613E
:101B0000FB691C4AA2FB03235B091B017B627B6A06
:101B10001B09642202FB03F3FA69D31ABB617B68D9
:101B20009B899BB21BB2002B0CDABB69DB00323302
:101B3000104AA2FB03235B0903F007037A6A1343ED
:101B40007B620BE0BB691B0132330A4AA2FB032311
:101B50005B0903F00F037A6A13437B627B6A9AB2D4
:101B60007B681A8100BF2837BD4680BD0010014048
:101B7000001401401F85EB5180B483B000AF786042
:101B80007B684FF416521A607B6800229A807B684B
:101B90000022DA807B6800221A817B680C225A813D
:101BA0007B6800229A8100BF0C37BD465DF8047B3C
:101BB000704780B483B000AF78600B46FB70FB7851
:101BC000002B08D07B689B899BB243F400539AB2E8
:101BD0007B689A8107E07B689B899BB223F4005362
:101BE0009AB27B689A8100BF0C37BD465DF8047BD2
:101BF000704780B483B000AF78600B467B8013469B
:101C00007B707B78002B08D07B689B8A9AB27B889C
:101C100013439AB27B689A8209E07B689B8A9AB2E6
:101C20007B88DB439BB213409AB27B689A8200BFE9
:101C30000C37BD465DF8047B704780B483B000AFBD
:101C40007860FEE780B500AF164BD3F88830154AB0
:101C500043F47003C2F88830134B1B68124A43F0F8
:101C600001031360104B00229A600F4B1B680E4A51
:101C700023F0847323F4803313600B4B0B4A5A60B8
:101C8000094B1B68084A23F480231360064B00228B
:101C9000DA6000F089F8034B4FF000629A6000BFF1
:101CA00080BD00BF00ED00E000380240103000248D
:101CB00080B487B000AF00233B6100237B61022327
:101CC000FB600023BB6002237B60324B9B6803F008
:101CD0000C033B613B69042B07D0082B09D0002B78
:101CE0003DD12D4B2D4A1A603DE02B4B2C4A1A60FA
:101CF00039E0284B5B689B0D03F00103BB60254B6B
:101D00005B6803F03F037B60BB68002B0CD0244A68
:101D10007B68B2FBF3F31F4A52689209C2F30802D0
:101D200002FB03F37B610BE01C4A7B68B2FBF3F31D
:101D3000184A52689209C2F3080202FB03F37B615E
:101D4000144B5B681B0C03F0030301335B00FB6067
:101D50007A69FB68B2FBF3F30F4A136003E00E4BA2
:101D60000E4A1A6000BF0B4B9B681B0903F00F0360
:101D70000C4AD35CDBB23B61074B1A683B6922FA21
:101D800003F3054A136000BF1C37BD465DF8047BB2
:101D9000704700BF00380240100000200024F4000B
:101DA00000127A001400002080B483B000AF00233A
:101DB0007B6000233B60364B1B68354A43F480331D
:101DC0001360334B1B6803F400333B607B680133C3
:101DD0007B603B68002B03D17B68B3F5A06FF0D12B
:101DE0002B4B1B6803F40033002B02D001233B6014
:101DF00001E000233B603B68012B42D1244B1B6C6C
:101E0000234A43F080531364224B1B68214A43F456
:101E1000804313601E4B1E4A9B6893601C4B9B685B
:101E20001B4A43F400439360194B9B68184A43F4E0
:101E3000A0539360164B184A5A60154B1B68144AFE
:101E400043F08073136000BF114B1B6803F00073F5
:101E5000002BF9D0114B40F205621A600C4B9B68C5
:101E60000B4A23F003039360094B9B68084A43F035
:101E70000203936000BF064B9B6803F00C03082B22
:101E8000F9D100BF0C37BD465DF8047B704700BF39
:101E9000003802400070004008544007003C0240F7
:101EA00080B500AF8021114801F0B0FA0346002B45
:101EB00001D1012318E00D4B1B68184601F0B8FA58
:101EC00002460B4B1A600A4B1B680A4A1360084B08
:101ED0001B680133084A1360084B00221A80054B27
:101EE0001B6800221A700023184680BD9011002044
:101EF00094110020A0110020981100209C110020B6
:101F000080B500AF01F07AFA03461A4601239A42DF
:101F100001D0012302E0FFF7C3FF0346184680BD4E
:101F200080B500AF0D4B1A680D4B1B8801339BB277
:101F30001946104601F08AFA03461A4600239A42CF
:101F400001D1032307E0FFF7ABFF0346002B01D0CD
:101F5000032300E00023184680BD00BF901100203D
:101F60009C11002080B586B000AF786039600023F6
:101F7000FB757B683B6137E01F4B1B887A2B08D1D0
:101F8000FFF7CEFF0346FB75FB7D002B01D0FB7DE9
:101F90002EE0194B1B88C3F17A03FB81FB893A6859
:101FA0009A4202D83B689BB200E0FB89BB60134BAE
:101FB0001B68BA683969184608F098FB3A68BB682C
:101FC000D31A3B60BB689AB20B4B1B8813449AB27E
:101FD000094B1A803A69BB6813443B61074B1A6886
:101FE000BB681344054A13603B68002BC4D1FB7DDA
:101FF00018461837BD4680BD9C110020981100205E
:1020000080B588B000AF786039600023FB7600238C
:10201000FB617B687B613DE0224B1B88002B2ED04F
:10202000204B1B881A463B68934202D83B689BB200
:1020300001E01C4B1B887B82FB697A69D0181A4B24
:102040001B687A8A194608F051FB164B1A887B8A5E
:10205000D31A9AB2134B1A80134B1A687B8A134413
:10206000114A13607B8A3A68D31A3B603B68002BA5
:1020700001D1FB7E12E07B8AFA691344FB610949B6
:10208000094801F065FAF860FB68B3F1FF3F01D140
:10209000012303E03B68002BBED1FB7E18462037AE
:1020A000BD4680BDA4110020A811002080B582B0DB
:1020B00000AF0346FB71FB79002B04D00A4B1B6871
:1020C00002221A7003E0084B1B6801221A70FFF706
:1020D00027FF0346032B01D1032300E0002318460A
:1020E0000837BD4680BD00BFA011002080B483B07A
:1020F00000AF78607B68002B01D0022300E0002352
:1021000018460C37BD465DF8047B704780B582B039
:1021100000AF0623FB71FB1D01211846FFF722FFCC
:102120000346002B01D003231AE00023FB71FB1DA3
:1021300001211846FFF716FF0346002B01D00323A9
:102140000EE00823FB71FB79FB71FB1D0121184692
:10215000FFF708FF0346002B01D0032300E0002314
:1021600018460837BD4680BD80B584B000AF7860A2
:102170000023FB737B68002B02D104F07BF801E0A5
:102180000223FB73FB7B18461037BD4680BD80B42D
:1021900085B000AF78600023FB737B68002B01D013
:1021A0000223FB73FB7B18461437BD465DF8047BA6
:1021B000704780B485B000AF78600023FB737B6804
:1021C000002B01D00223FB73FB7B18461437BD465E
:1021D0005DF8047B704780B485B000AF7860002361
:1021E000FB737B68002B01D00223FB73FB7B18463B
:1021F0001437BD465DF8047B7047000080B4AFB073
:1022000000AFF8607A603B600B46FB72002387F8F2
:10221000B7303B6800221A60FB68002B05D0022310
:1022200087F8B73097F8B73026E3FB7A032B00F036
:10223000A982082B40F01A83CA4B1B68002B40F080
:102240009D820023C7F8B030C74BC7F8AC30C74AEF
:10225000D7F8B030082142F83310D7F8B0305A1C04
:10226000C7F8B020C14ADB001344D7F8AC205A604D
:10227000BF4BC7F8A830BD4AD7F8B030082142F8A4
:102280003310D7F8B0305A1CC7F8B020B74ADB007B
:102290001344D7F8A8205A60B64BC7F8A430B34A05
:1022A000D7F8B030082142F83310D7F8B0305A1CB4
:1022B000C7F8B020AD4ADB001344D7F8A4205A6019
:1022C000AD4BC7F8A030A94AD7F8B030082142F882
:1022D0003310D7F8B0305A1CC7F8B020A34ADB003F
:1022E0001344D7F8A0205A60A44BC7F89C309F4AEB
:1022F000D7F8B030082142F83310D7F8B0305A1C64
:10230000C7F8B020994ADB001344D7F89C205A60E4
:102310009B4BC7F89830954AD7F8B030082142F85F
:102320003310D7F8B0305A1CC7F8B0208F4ADB0002
:102330001344D7F898205A60924BC7F894308B4AD0
:10234000D7F8B030082142F83310D7F8B0305A1C13
:10235000C7F8B020854ADB001344D7F894205A60B0
:10236000894BC7F89030814AD7F8B030082142F83D
:102370003310D7F8B0305A1CC7F8B0207B4ADB00C6
:102380001344D7F890205A60804BC7F88C30774AB6
:10239000D7F8B030082142F83310D7F8B0305A1CC3
:1023A000C7F8B020714ADB001344D7F88C205A607C
:1023B000774BC7F888306D4AD7F8B030082142F81B
:1023C0003310D7F8B0305A1CC7F8B020674ADB008A
:1023D0001344D7F888205A606E4BC7F88430634A9C
:1023E000D7F8B030082142F83310D7F8B0305A1C73
:1023F000C7F8B0205D4ADB001344D7F884205A6048
:10240000654BC7F88030594AD7F8B030082142F8F8
:102410003310D7F8B0305A1CC7F8B020534ADB004D
:102420001344D7F880205A605C4BFB674F4AD7F8BB
:10243000B030082142F83310D7F8B0305A1CC7F832
:10244000B0204A4ADB001344FA6F5A60544BBB6712
:10245000464AD7F8B030082142F83310D7F8B030E8
:102460005A1CC7F8B020414ADB001344BA6F5A60C7
:102470004C4B7B673D4AD7F8B030082142F8331007
:10248000D7F8B0305A1CC7F8B020384ADB001344E4
:102490007A6F5A60444B3B67344AD7F8B030082112
:1024A00042F83310D7F8B0305A1CC7F8B0202F4A82
:1024B000DB0013443A6F5A603C4BFB662B4AD7F85B
:1024C000B030082142F83310D7F8B0305A1CC7F8A2
:1024D000B020264ADB001344FA6E5A60344BBB66C8
:1024E000224AD7F8B030082142F83310D7F8B0307C
:1024F0005A1CC7F8B0201D4ADB001344BA6E5A605C
:102500002C4B7B66194AD7F8B030082142F83310BB
:10251000D7F8B0305A1CC7F8B020144ADB00134477
:102520007A6E5A60244B3B66104AD7F8B0300821C7
:1025300042F83310D7F8B0305A1CC7F8B0200B4A15
:10254000DB0013443A6E5A601C4BFB65074AD7F810
:10255000B030082142F83310D7F8B0305A1CC7F811
:10256000B0202DE00C1300202800002004120020D1
:1025700030000020380000204000002048000020EB
:10258000500000205800002060000020680000205B
:1025900070000020780000208000002088000020CB
:1025A0009000002098000020A0000020A80000203B
:1025B000B0000020B8000020C0000020C8000020AB
:1025C000B04ADB001344FA6D5A60AF4BBB65AD4AAD
:1025D000D7F8B030082142F83310D7F8B0305A1C81
:1025E000C7F8B020A74ADB001344BA6D5A60A74B66
:1025F0007B65A44AD7F8B030082142F83310D7F8E9
:10260000B0305A1CC7F8B0209E4ADB0013447A6DE4
:102610005A609F4B3B659B4AD7F8B030082142F87F
:102620003310D7F8B0305A1CC7F8B020954ADB00F9
:1026300013443A6D5A60974BFB64924AD7F8B03016
:10264000082142F83310D7F8B0305A1CC7F8B02030
:102650008C4ADB001344FA6C5A608F4BBB64894A86
:10266000D7F8B030402142F83310D7F8B0305A1CB8
:10267000C7F8B020834ADB001344BA6C5A60874B1A
:102680007B64804AD7F8B030402142F83310D7F845
:10269000B0305A1CC7F8B0207A4ADB0013447A6C79
:1026A0005A607F4B3B64774AD7F8B030402142F8FC
:1026B0003310D7F8B0305A1CC7F8B020714ADB008D
:1026C00013443A6C5A60774BFB636E4AD7F8B030CC
:1026D000402142F83310D7F8B0305A1CC7F8B02068
:1026E000684ADB001344FA6B5A606F4BBB63654A60
:1026F000D7F8B030402142F83310D7F8B0305A1C28
:10270000C7F8B0205F4ADB001344BA6B5A60674BCE
:102710007B635C4AD7F8B030602142F83310D7F8B9
:10272000B0305A1CC7F8B020564ADB0013447A6B0D
:102730005A605F4B3B63534AD7F8B030602142F890
:102740003310D7F8B0305A1CC7F8B0204D4ADB0020
:1027500013443A6B5A604B4AD7F8B030002142F824
:102760003310D7F8B0305A1CC7F8B020454ADB0008
:10277000134400225A604F4B01221A603B68414AC1
:102780001A6077E04C4B1B68002B6BD10023FB6277
:102790004A4BBB624A4AFB6A082142F83310FB6A83
:1027A0005A1CFA62464ADB001344BA6A5A60454B27
:1027B0007B62434AFB6A202142F83310FB6A5A1CB1
:1027C000FA623F4ADB0013447A6A5A603E4B3B622E
:1027D0003B4AFB6A082142F83310FB6A5A1CFA6232
:1027E000374ADB0013443A6A5A60384BFB61344A7B
:1027F000FB6A082142F83310FB6A5A1CFA62304A1D
:10280000DB001344FA695A60314BBB612C4AFB6A06
:10281000082142F83310FB6A5A1CFA62284ADB008E
:102820001344BA695A602B4B7B61254AFB6A20210D
:1028300042F83310FB6A5A1CFA62214ADB00134447
:102840007A695A601E4AFB6A002142F83310FB6A1B
:102850005A1CFA621A4ADB00134400225A60164BD3
:1028600001221A603B68164A1A6003E0012387F8C8
:10287000B73000BF97F8B7301846BC37BD465DF893
:10288000047B704704120020D0000020D8000020F4
:10289000E0000020E8000020F000002030010020CF
:1028A00070010020B0010020F00100203002002063
:1028B000900200200C13002010130020D0140020E0
:1028C000AC110020D8140020F814002000150020BE
:1028D000081500201015002080B582B000AF786088
:1028E00039607B68002B01D0022308E03B68012B94
:1028F00004D101F0B5F900BF002300E00123184620
:102900000837BD4680BD80B483B000AF78603960C1
:102910007B68002B01D0022300E0002318460C370F
:10292000BD465DF8047B704780B48BB000AFF860A3
:102930007A603B600B46FB72002387F827303B68C8
:1029400000221A60FB68002B05D0022387F827308D
:1029500097F827305DE0FB7A012B02D0032B29D0BA
:1029600051E02F4B1B68002B20D10023BB612D4B66
:102970007B612D4ABB69202142F83310BB695A1C88
:10298000BA61294ADB0013447A695A60264ABB6956
:10299000002142F83310BB695A1CBA61224ADB009D
:1029A000134400225A601E4B01221A603B681E4AE3
:1029B0001A602CE01D4B1B68002B20D100233B62CA
:1029C000184BFB611A4A3B6A202142F833103B6ADC
:1029D0005A1C3A62164ADB001344FA695A60144AD8
:1029E0003B6A002142F833103B6A5A1C3A62104A93
:1029F000DB00134400225A600C4B01221A603B6832
:102A00000B4A1A6003E0012387F8273000BF97F8CC
:102A1000273018462C37BD465DF8047B704700BF51
:102A20001413002030150020F4110020181300208A
:102A3000E411002080B582B000AF78607B68002B85
:102A400001D0022302E003F039FC002318460837C6
:102A5000BD4680BD80B483B000AF786039607B68CC
:102A6000002B01D0022300E0012318460C37BD469D
:102A70005DF8047B704780B483B000AF7860396044
:102A80007B68002B01D0022300E0012318460C379D
:102A9000BD465DF8047B704780B400AF074B1B68F0
:102AA0001B68002B04D0054B1B680833034A1360D6
:102AB00000BFBD465DF8047B704700BF1C130020BB
:102AC00080B586B000AFF8600B467A60FB720023D9
:102AD0007B61214B1B68002B36D1F97A1F4B7A683A
:102AE000F868FFF78BFB0346002B03D001237B61C3
:102AF00000232DE0194B1B685B68174A1360174BC6
:102B00001B681B68164A13601EE0134B1A68144BAF
:102B10001B6819461046FFF773FAFFF7BDFF0F4B0E
:102B20001B681B68002B05D101237B610A4B002227
:102B30001A6009E0094B1B685B68074A1360074B82
:102B40001B681B68064A13607B69002BDDD00023DD
:102B500018461837BD4680BD341300201C130020D2
:102B60003813002080B586B000AFF8607B600B465C
:102B7000FB721346BB7201237B61B97A204B7A68E2
:102B8000F868FFF7D1FE0346002B01D0002332E0A6
:102B900007F10B0301211846FFF7E4F90346002B68
:102BA00001D0012327E0FB7A072B20D1042115480F
:102BB000FFF7D8F90346002B19D001231BE0104B77
:102BC0001B685A680E4B1B681B6819461046FFF7B6
:102BD000C9F90346002B01D001230CE0FFF75CFF8D
:102BE000074B1B681B68002B01D100237B617B69AD
:102BF000002BE4D1002318461837BD4680BD00BF26
:102C00001C1300202413002080B584B000AF0346BD
:102C10000A46FB711346BB71FB79002B19D00023C8
:102C2000FB7307F10F0301211846FFF79BF90346D9
:102C3000002B01D0012316E0FB79FB7307F10F0392
:102C400001211846FFF78EF90346002B01D001231E
:102C500009E0BB791846FFF729FA0346002B01D09B
:102C6000012300E0002318461037BD4680BD000058
:102C700080B485B000AF03460A46FB711346BB71B2
:102C800097F90730052B00F2E88001A252F823F0F3
:102C9000A92C0008012D0008652D0008A72D0008AB
:102CA000FD2D0008552E0008BB790D2B24D801A25C
:102CB00052F823F0ED2C0008ED2C0008ED2C000854
:102CC000ED2C0008ED2C0008ED2C0008ED2C000880
:102CD000ED2C0008ED2C0008ED2C0008F32C00086A
:102CE000ED2C0008ED2C0008ED2C00080123FB73EF
:102CF00005E00123FB7302E0FF23FB7300BFAFE09D
:102D0000BB790D2B2AD801A252F823F0452D0008DB
:102D1000512D0008512D0008572D0008512D000895
:102D2000572D0008572D00084B2D0008512D000885
:102D3000572D00085D2D0008572D0008512D000863
:102D4000452D00080423FB730BE00523FB7308E00B
:102D50000323FB7305E00223FB7302E0FF23FB73F5
:102D600000BF7DE0BB79033B082B18D801A252F8C5
:102D700023F000BF992D00089F2D0008992D000811
:102D8000992D00089F2D00089F2D0008992D0008FF
:102D90009F2D0008992D00080323FB7302E0FF23F9
:102DA000FB7300BF5CE0BB79013B0C2B22D801A276
:102DB00052F823F0E92D0008E92D0008E92D00085C
:102DC000E92D0008E92D0008E92D0008F52D00087F
:102DD000E92D0008EF2D0008F52D0008E92D000869
:102DE000E92D0008E92D00080423FB7305E0062304
:102DF000FB7302E0FF23FB7300BF31E0BB790D2BB7
:102E000024D801A252F823F0412E0008472E0008D2
:102E1000472E0008472E0008472E0008472E0008BE
:102E2000472E0008472E0008412E00084D2E0008AE
:102E30004D2E0008412E0008472E0008472E00089E
:102E40000623FB7305E00523FB7302E0FF23FB73FE
:102E500000BF05E00623FB7302E0FF23FB7300BF06
:102E600097F90F3018461437BD465DF8047B70475C
:102E700080B582B000AF1D4B93F90030002B31D1EB
:102E8000FB1D01211846FFF7BBF8FA79174B5A7062
:102E9000164B5B780A2B0DD1154B01221A600121CC
:102EA0000820FFF7B1FE0346002B1AD0114B002279
:102EB0001A6017E00D4B93F900200C4B5B78194614
:102EC0001046FFF7D5FE03461A46084B1A70074B0B
:102ED00093F90030B3F1FF3F04D1064B00221A6092
:102EE00000E000BF0837BD4680BD00BF28130020AA
:102EF000201300202400002080B582B000AFFFF72F
:102F0000B7FFBF4B93F90030012B1AD10421BD4804
:102F1000FFF776F8BA4B93F90020B94B5B78194666
:102F20001046FFF7A5FE03461A46B54B1A70B44B80
:102F300093F90030B3F1FF3F03D1B34B00221A6085
:102F40001DE2AF4B93F90030022B1AD10421AF4898
:102F5000FFF756F8AA4B93F90020A94B5B78194666
:102F60001046FFF785FE03461A46A54B1A70A44B80
:102F700093F90030B3F1FF3F03D1A34B00221A6055
:102F8000FDE19F4B93F90030032B37D19C4B9868A0
:102F90009B4B59789A4B5B681A46FFF791FD0346A5
:102FA000FB71FB79012B03D1974B00221A60E6E1FC
:102FB000FB79002B0BD001210120FFF725FE0346F2
:102FC000002B00F0C381904B00221A60D7E18C4B9C
:102FD00093F900208A4B5B7819461046FFF748FEAC
:102FE00003461A46864B1A70854B93F90030B3F1AD
:102FF000FF3F03D1844B00221A60C0E1804B93F95C
:103000000030042B40F04A817D4B5B780D2B00F2A1
:10301000138101A252F823F051300008A1300008BA
:10302000F5300008D33100081F310008493100088D
:103030007731000841320008773000083932000843
:1030400039320008A531000811320008CB300008E1
:10305000FDF7ABFC0346002B03D06B4B00221A603C
:103060008DE1FFF753F80346002B00F0EB80664B31
:1030700000221A6083E1624B9B681846FFF736F81E
:103080000346002B00F0E08001210320FFF7BCFD88
:103090000346002B00F05C815B4B00221A606EE15E
:1030A000574B9B681846FFF75FF80346002B00F06C
:1030B000CD8001210420FFF7A7FD0346002B00F07F
:1030C0004981514B00221A6059E14D4B9B681846CB
:1030D000FFF75DF80346002B00F0BA8001210420C1
:1030E000FFF792FD0346002B00F03681464B00228D
:1030F0001A6044E1424B9B681846FFF75AF80346B2
:10310000002B00F0A78001210520FFF77DFD03467D
:10311000002B00F023813C4B00221A602FE1384B3A
:103120009B681846FFF786FC0346002B00F094804E
:1031300001210820FFF768FD0346002B00F01081F5
:10314000314B00221A601AE12D4B9A682C4B5B68B8
:1031500019461046FFF77EFC0346002B7ED0012166
:103160000920FFF751FD0346002B00F0FB80264BA2
:1031700000221A6003E1224B9A68214B5B681946D2
:103180001046FFF778FC0346002B69D001210A2086
:10319000FFF73AFD0346002B00F0E6801A4B0022B1
:1031A0001A60ECE0164B9A68154B5B68194610469E
:1031B000FFF7A9FB0346002B54D001210720FFF79E
:1031C00023FD0346002B00F0D1800F4B00221A6034
:1031D000D5E00B4B9A680A4B5B6819461046FFF71F
:1031E0007BFB0346002B3FD001210620FFF70CFD9F
:1031F0000346002B00F0BC80034B00221A60BEE0A7
:103200002813002030130020240000202C1300205D
:103210005C4B9B681846FEF7DEFF0346002B25D06B
:1032200001210B20FFF7F0FC0346002B00F0A280E9
:10323000554B00221A60A2E0534B00221A609EE018
:1032400000BF14E000BF12E000BF10E000BF0EE0BE
:1032500000BF0CE000BF0AE000BF08E000BF06E0CE
:1032600000BF04E000BF02E000BF00E000BF454B2C
:1032700093F90020434B5B7819461046FFF7F8FCA2
:1032800003461A463F4B1A703E4B93F90030B3F198
:10329000FF3F03D13C4B00221A6070E0394B93F999
:1032A0000030052B36D1374B9868364B5A78354B62
:1032B0005B680121FFF756FC0346BB71BB79012B0C
:1032C00003D1314B00221A6059E0BB79002B0AD0A0
:1032D00001210220FFF798FC0346002B4CD02A4B1B
:1032E00000221A604BE0274B93F90020254B5B78B6
:1032F00019461046FFF7BCFC03461A46214B1A70CC
:10330000204B93F90030B3F1FF3F03D11E4B002255
:103310001A6034E01B4B93F90030062B2ED1194B69
:103320005B78092B2AD001237B717B791946002019
:10333000FFF76AFC0346002B03D0134B00221A60F0
:103340001DE0104B00221A7000BF17E000BF16E00E
:1033500000BF14E000BF12E000BF10E000BF0EE0AD
:1033600000BF0CE000BF0AE000BF08E000BF06E0BD
:1033700000BF04E000BF02E000BF00E000BF08376C
:10338000BD4680BD281300202400002080B582B0F7
:1033900000AF0123FB71FFF7AFFDFB79184608373B
:1033A000BD4680BD80B582B000AF0023FB71FFF742
:1033B000EDFF03463B603B68002B05D00D4B1B68BF
:1033C000002B01D0012300E000233B603B68002B71
:1033D00009D0094B1B68002B02D00223FB7104E0CB
:1033E0000023FB7101E00123FB71FB7918460837CC
:1033F000BD4680BD240000202013002080B400AF13
:1034000001231846BD465DF8047B704780B483B045
:1034100000AF78600B467B807B68044A1A6001230A
:1034200018460C37BD465DF8047B70473C130020FE
:1034300080B483B000AF7860034B18460C37BD46AC
:103440005DF8047B704700BF4113002080B582B057
:1034500000AF78600B467B807B881A460121786834
:1034600000F042F80346DBB218460837BD4680BD7F
:1034700080B582B000AF786039603968786800F054
:1034800019F8024601239A4201D001230EE0FEF70B
:1034900037FD0346002B01D0012307E0FDF708FBB1
:1034A0000346002B01D0012300E000231846083713
:1034B000BD4680BD80B582B000AF786039603968A4
:1034C0007868FDF7D3FB0246064B1A60054B1B6874
:1034D000B3F1FF3F01D1002300E001231846083774
:1034E000BD4680BDBC13002080B588B000AF7860B9
:1034F0000B46FB7013463B80FB78FB733B88FB61FC
:10350000FB690533BB61FB69BB607B687B617B69E1
:10351000002B01D1002315E0FA7B7B691A707B69CF
:103520000133BA681A60094B1B68BA697969184691
:10353000FDF7C8FD38613B69B3F1FF3F01D10023BE
:1035400000E0012318462037BD4680BDBC13002093
:1035500080B586B000AF7860396000233B61194BBD
:103560001B6807F10F0101221846FDF7DDFD7861A8
:103570007B69B3F1FF3F01D100231EE0114B1B68B3
:1035800007F1100104221846FDF7CEFD78617B6932
:10359000B3F1FF3F01D100230FE00A4B1B683A69EA
:1035A00009491846FDF7C0FD78617B68064A1A6034
:1035B0003B699AB23B681A80012318461837BD460A
:1035C00080BD00BFBC130020C0130020F0B58FB039
:1035D00000AF87ED040BF860B9607A60FB68D3E94F
:1035E00000341A462346D7E9040106F075FF034666
:1035F000002B08D000233B624FF000034FF0000483
:10360000C7E90A346AE07B68DB00FA681344D3E94F
:1036100000341A462346D7E9040106F053FF034657
:10362000002B53D07B685B08FB6100233B627B6807
:103630007B6218E0FB69DB00FA681344D3E90034CD
:103640001A462346D7E9040106F03CFF0346002B47
:1036500002D0FB697B6201E0FB693B627A6A3B6AEC
:1036600013445B08FB617A6A3B6AD31A012BE1D8E9
:103670003B6ADB00FA681344D3E900341A46234658
:10368000D7E9040106F0F4FA03460C461D46264627
:103690003B6A0133DB00FA681344D3E900013B6A5B
:1036A000DB00FA681344D3E900341A46234606F0D7
:1036B000DFFA03460C461A4623462846314606F0F2
:1036C000B9FD03460C46C7E90A3407E07B683B6254
:1036D0004FF000034FF00004C7E90A343A6A7B68F0
:1036E0009A4208D13B6ADB00BA681344D3E900343C
:1036F000C7E90C342AE03B6A0133DB00BA681344A3
:10370000D3E900013B6ADB00BA681344D3E9003413
:103710001A46234606F0ACFA03460C4618462146E4
:10372000D7E90A2306F05CFC03460C4618462146FE
:103730003B6ADB00BA681344D3E900341A462346D7
:1037400006F098FA03460C46C7E90C34D7E90C3466
:1037500044EC173BB0EE470AF0EE670A3C37BD4633
:10376000F0BD000090B58BB000AF87ED020B87ED88
:10377000001B97ED020B02F0DBFE0346002B06D187
:1037800097ED000B02F0D4FE0346002B05D07F4BD3
:10379000D3E90034C7E90834EDE0BB68BB61FB68DE
:1037A00023F00043FB613B683B617B6823F00043EF
:1037B0007B6197ED000B02F093FE0346002B49D08E
:1037C0004FF00002724BD7E9060106F071FE034686
:1037D000002B05D04FF000036D4CC7E90834CAE058
:1037E0004FF000026A4BD7E9060106F089FE034656
:1037F000002B17D04FF000024FF00003D7E9000173
:1038000006F07EFE0346002B05D0624BD3E9003460
:10381000C7E90834AFE04FF000034FF00004C7E9F8
:103820000834A8E04FF000024FF00003D7E9000190
:1038300006F066FE0346002B06D04FF000034FF063
:103840000004C7E9083496E0524BD3E90034C7E9D5
:10385000083490E04FF000024FF00003D7E9040174
:1038600006F026FE0346002B05D04FF00003484C1F
:10387000C7E908347FE04FF00002454BD7E9040167
:1038800006F016FE0346002B1BD04FF000024FF04F
:103890000003D7E9000106F033FE0346002B04D0F5
:1038A000D7E90234C7E9083465E0D7E902234FF0CD
:1038B0000000374906F0BEFC03460C46C7E9083451
:1038C00059E04FF000024FF08043D7E9000106F0C5
:1038D000EFFD0346002B0AD0D7E90223D7E9020106
:1038E00006F07EFB03460C46C7E9083443E04FF080
:1038F0000002294BD7E9000106F0DAFD0346002B50
:1039000011D04FF000024FF00003D7E9020106F09A
:10391000EDFD0346002B06D097ED020B03F0ECFD06
:1039200087ED080B27E04FF000024FF00003D7E9C6
:10393000020106F0C7FD0346002B14D097ED000BE3
:1039400003F0EAFA54EC103B1A462346D7E900018B
:1039500006F0D6FD0346002B05D00C4BD3E900340E
:10396000C7E9083407E097ED001B97ED020B03F061
:1039700027FC87ED080BD7E9083444EC173BB0EE81
:10398000470AF0EE670A2C37BD4690BD601500204F
:103990000000F03F581500200000E03F000000004C
:1039A00090B589B000AF87ED020B87ED001BBB68B7
:1039B0003B61FB6823F000437B613B68BB617B6834
:1039C00023F00043FB61D7E90623D7E9040106F0A1
:1039D00079FD0346002B2FD0D7E90623D7E9040150
:1039E00006F028FC03460C46C7E90434D7E9042353
:1039F000D7E9040106F0F4FA03460C4618462146BE
:103A00004FF000023A4B06F035F903460C4644EC01
:103A1000173BB0EE470AF0EE670A03F06DFD54EC79
:103A2000103B1A462346D7E9060106F0D9FA0346A9
:103A30000C46C7E906344AE0D7E90623D7E9040172
:103A400006F05EFD0346002B2FD0D7E90423D7E90B
:103A5000060106F0EFFB03460C46C7E90634D7E93A
:103A60000623D7E9060106F0BBFA03460C461846C2
:103A700021464FF000021E4B06F0FCF803460C46B0
:103A800044EC173BB0EE470AF0EE670A03F034FD52
:103A900054EC103B1A462346D7E9040106F0A0FA7D
:103AA00003460C46C7E9063411E097ED060B02F019
:103AB0003FFD0346002B0AD10BA3D3E90023D7E92E
:103AC000040106F08DFA03460C46C7E90634D7E92F
:103AD000063444EC173BB0EE470AF0EE670A243791
:103AE000BD4690BDAFF30080CD3B7F669EA0F63F04
:103AF0000000F03F00000000B0B588B000AF87EDD7
:103B0000020B87ED001B97ED020B02F011FD03463F
:103B1000002B06D197ED000B02F00AFD0346002BA7
:103B200005D04D4BD3E90034C7E906347EE097ED6C
:103B3000020B02F0D5FC0346002B3BD097ED000BA7
:103B400002F0CEFC0346002B34D04FF000024FF0C1
:103B50000003D7E9020106F0D3FC0346002B02D094
:103B600001237B6102E04FF0FF337B614FF00002E5
:103B70004FF00003D7E9000106F0C2FC0346002B1A
:103B800002D001233B6102E04FF0FF333B617869D3
:103B900006F0BCF904460D46386906F0B7F902464E
:103BA0000B4643EC112B45EC104B03F09DFA87EDCF
:103BB000060B3BE04FF000024FF00003D7E9000195
:103BC00006F076FC0346002B28D04FF000024FF0A1
:103BD0000003D7E9020106F093FC0346002B05D051
:103BE00019A4D4E90034C7E906341FE04FF00002FD
:103BF0004FF00003D7E9020106F064FC0346002BF6
:103C000005D013A4D4E90034C7E906340EE04FF020
:103C100000034FF00004C7E9063407E097ED001BEE
:103C200097ED020B03F060FA87ED060BD7E9063437
:103C300044EC173BB0EE470AF0EE670A2037BD466A
:103C4000B0BD00BFAFF30080182D4454FB21F93FF5
:103C5000182D4454FB21F9BF60150020000000001E
:103C60002DE9F04FB5B000AF9A4BD3E9BE019A4BA6
:103C7000D3E910341A46234606F0B2F903460C463F
:103C800019462246954BC3E90012944B93ED007BF5
:103C90000B2293499348B0EE470AF0EE670AFFF70C
:103CA00095FCB0EE407AF0EE607A8C4B83ED007BB1
:103CB000884BD3E9BE01884BD3E912341A46234618
:103CC00006F08EF903460C4619462246834BC3E99B
:103CD0000212824B93ED027B0B2281498148B0EEA8
:103CE000470AF0EE670AFFF771FCB0EE407AF0EE9B
:103CF000607A7A4B83ED027B764BD3E9BE01764B3B
:103D0000D3E914341A46234606F06AF903460C46F2
:103D100019462246714BC3E90412704B93ED047BA4
:103D20000B226F496F48B0EE470AF0EE670AFFF7C3
:103D30004DFCB0EE407AF0EE607A684B83ED047B88
:103D4000644BD3E9BE01644BD3E916341A462346CB
:103D500006F046F903460C46194622465F4BC3E976
:103D600006125E4B93ED067B0B225D495D48B0EE7B
:103D7000470AF0EE670AFFF729FCB0EE407AF0EE52
:103D8000607A564B83ED067B524BD3E90001514BD1
:103D9000D3E902341A46234605F06CFF03460C466D
:103DA00019462246504BC3E90C124B4BD3E9020192
:103DB000484BD3E9C6341A46234606F0A1FB034616
:103DC000002B05D0434BD3E9C634C7E92C3417E0A8
:103DD000414BD3E902013F4BD3E9C8341A4623468D
:103DE00006F070FB0346002B05D03A4BD3E9C834EC
:103DF000C7E92C3404E0384BD3E90234C7E92C344A
:103E0000344BD3E9C401D7F8B050D7F8B43023F01D
:103E100000462A46334605F02BFF03460C4619465A
:103E20002246314BC3E918122F4BD3E90C452E4BD8
:103E300093ED187BB0EE470AF0EE670A03F00CF83A
:103E400053EC102B2046294606F0F4F903460C46A5
:103E5000C7E93034D7E93034C7E92E34224B93ED2B
:103E6000187BB0EE470AF0EE670A03F0DDF854EC79
:103E7000103B1A462346D7E9300106F0B1F8034655
:103E80000C46C7E93234144BD3E90401114BD3E992
:103E9000C6341A46234606F033FB0346002B05D0F2
:103EA0000C4BD3E9C634C7E92C3424E00A4BD3E9E0
:103EB0000401084BD3E9C8341A46234606F002FB36
:103EC0000346002B12D0034BD3E9C834C7E92C3486
:103ED00011E000BF28000020D01400203015002081
:103EE0009002002030020020601400206E4BD3E9C5
:103EF0000434C7E92C346D4BD3E9C401D7F8B03092
:103F0000C7F89830D7F8B43023F00043C7F89C3096
:103F1000D7E9262305F0ACFE03460C461946224697
:103F2000634BC3E91812624BD3E90C45604B93ED28
:103F3000187BB0EE470AF0EE670A02F08DFF53ECF3
:103F4000102B2046294606F075F903460C46C7E9B2
:103F50003034574B93ED187BB0EE470AF0EE670A0A
:103F600003F062F851EC100BD7E9302306F038F873
:103F700003460C46194622464D4BC3E918124C4BDA
:103F8000D3E91801D7E9322305F074FE03460C4645
:103F9000184621464FF000024FF0804306F04AF9E0
:103FA00003460C4644EC173B9FED3D1BB0EE470A21
:103FB000F0EE670AFFF7D6FB55EC104B3B4B93ED49
:103FC000027B9FED371BB0EE470AF0EE670AFFF762
:103FD000C9FB53EC102B2046294605F04BFE034647
:103FE0000C46C7E92C34314BD3E930012E4BD3E9D1
:103FF00000341A46234605F0F3FF03460C461946E3
:1040000022462B4BC3E90C12294BD3E90C01274B59
:10401000D3E9C0341A46234606F072FA0346002B51
:1040200006D0224BD3E9C034214AC2E90C3412E055
:104030001F4BD3E90C011D4BD3E9C2341A4623466A
:1040400006F040FA0346002B05D0184BD3E9C234E2
:10405000174AC2E90C344FF000024FF00003D7E9D1
:104060002C0106F02FFA0346002B23D0D7F8B030EE
:10407000C7F89030D7F8B43083F00043C7F89430D5
:1040800097ED240B03F038FA52EC101B0B46C7F8DF
:10409000B03082F00043C7F8B43011E0AFF30080D5
:1040A0000000000000000040D01400202800002084
:1040B0006014002097ED2C0B03F01EFA87ED2C0BFB
:1040C000B54BD3E90C01D7E92C2306F0B3F803462E
:1040D0000C4619462246B04BC3E90E12AF4BD3E94A
:1040E0002E341A462346D7E92E0106F0A3F80346DC
:1040F0000C4618462146A84BD3E90E341A462346EF
:1041000005F06EFF03460C4619462246A24BC3E952
:104110000C12A24BD3E92E341A462346D7E93001BC
:1041200006F088F803460C46184621469A4BD3E918
:104130000E341A46234605F053FF03460C46C7E9E2
:104140002C34964BD3E92E341A462346D7E9320154
:1041500006F070F803460C46184621468E4BD3E90C
:104160000E341A46234605F03BFF03460C46C7E9CA
:104170002A34894BD3E90E56874BD3E91801874B74
:10418000D3E92E341A46234606F054F803460C466B
:104190001A4623462846314605F022FF03460C46C0
:1041A000194622467C4BC3E90E127D4B93ED0A7BE8
:1041B0007B4B93ED0C6BB0EE461AF0EE661AB0EE48
:1041C000470AF0EE670AFFF7EBFBB0EE407AF0EE3D
:1041D000607A714B83ED127B714BD3E90201704B16
:1041E000D3E904341A46234605F044FD03460C4641
:1041F00018462146694BD3E9CE341A46234605F0CA
:10420000EFFE03460C4619462246634BC3E91012E3
:10421000614BD3E9120158A3D3E9002306F05CF9FE
:104220000346002B03D04FF000005E4903E04FF03F
:1042300000004FF00001584BD3E912341A462346D0
:1042400006F036F90346002B03D00023C7F8A4304C
:1042500081E0514BD3E9120147A3D3E9002306F0D3
:104260004FF90346002B0CD04B4BD3E9120144A36A
:10427000D3E9002306F030F90346002B01D00123D7
:1042800000E00023184605F041FE434BD3E9123409
:104290001A46234606F00CF90346002B03D00123EF
:1042A000C7F8A43057E03C4BD3E9120134A3D3E95B
:1042B000002306F025F90346002B0CD0364BD3E93A
:1042C000120131A3D3E9002306F006F90346002BBF
:1042D00001D0012300E00023184605F017FE2E4B05
:1042E000D3E912341A46234606F0E2F80346002BBF
:1042F00003D00223C7F8A4302DE0274BD3E91201E5
:1043000021A3D3E9002306F0FBF80346002B0CD0D1
:10431000214BD3E912011EA3D3E9002306F0DCF8F8
:104320000346002B01D0012300E00023184605F0CE
:10433000EDFD194BD3E912341A46234606F0B8F8BE
:104340000346002B03D00323C7F8A43003E04FF04B
:10435000FF33C7F8A430D7F8A430032B00F2B8809D
:1043600001A252F823F000BFA9430008ED43000862
:10437000314400087D440008ABAAAAAAAAAA30408A
:104380008EE3388EE3383640721CC7711CC73B4041
:10439000ABAAAAAAAAAA40406014002028000020C4
:1043A000D01400200000F03F474BD3E9D034C7E9D8
:1043B0003234454BD3E9D234C7E93034424BD3E9E8
:1043C000F834424AC2E914343F4BD3E9E434C7E934
:1043D0002E343D4BD3E9E6343C4AC2E918343A4B1B
:1043E000D3E9FA34394AC2E9163497E0364BD3E9B7
:1043F000D434C7E93234344BD3E9D634C7E9303446
:10440000314BD3E9FC34314AC2E914342E4BD3E9A1
:10441000E834C7E92E342C4BD3E9EA342B4AC2E9FD
:104420001834294BD3E9FE34284AC2E9163475E022
:10443000254BD3E9D834C7E93234234BD3E9DA34F6
:10444000C7E93034204B03F58063D3E900341F4AB9
:10445000C2E914341C4BD3E9EC34C7E92E341A4BAF
:10446000D3E9EE34194AC2E91834174B03F58163D6
:10447000D3E90034154AC2E916344FE0124BD3E9B0
:10448000DC34C7E93234104BD3E9DE34C7E93034C9
:104490000D4B03F58263D3E900340C4AC2E91434AE
:1044A000094BD3E9F034C7E92E34074BD3E9F23492
:1044B000064AC2E91834044B03F58363D3E9003498
:1044C000024AC2E9163429E02800002060140020C6
:1044D000634BD3E9E034C7E93234614BD3E9E234CA
:1044E000C7E930345E4B03F58463D3E900345D4A99
:1044F000C2E914345A4BD3E9F434C7E92E34584B8B
:10450000D3E9F634574AC2E91834554B03F58563AD
:10451000D3E90034534AC2E9163400BFD7F8C0309B
:10452000C7F88830D7F8C43023F00043C7F88C3080
:10453000D7F8C830C7F88030D7F8CC3023F0004324
:10454000C7F88430D7E92023D7E9220105F0D8FF46
:104550000346002B00F08A80D7E93023D7E93201E7
:1045600005F068FE03460C46194622463D4BC3E95A
:1045700008123C4BD3E908013A4BD3E918341A46E8
:10458000234605F02DFD03460C4618462146D7E983
:104590002E2305F06DFB03460C461A4623464FF0CA
:1045A0000000314905F046FE03460C4619462246F6
:1045B0002C4BC3E90A122B4BD3E91801D7E930235E
:1045C00005F038FE03460C4618462146254BD3E934
:1045D0000A341A46234605F003FD03460C461946E5
:1045E0002246204BC3E900121E4BD3E90A349846F9
:1045F00084F000491B4BC3E90289D7F8B830BB6788
:10460000D7F8BC3083F00043FB67D7E93023D7E904
:104610001E0105F00FFE03460C4618462146114BBD
:10462000D3E90A341A46234605F0DAFC03460C4661
:10463000194622460B4BC3E904120A4BD3E9080181
:10464000084BD3E90A341A46234605F0C9FC034651
:104650000C4619462246034BC3E906128AE000BF06
:1046600028000020601400200000F03FD7E932232A
:10467000D7E9300105F0DEFD03460C461946224617
:10468000B94BC3E90812B84BD3E91856B64BD3E976
:104690000801D7E92E2305F0A3FC03460C461A4671
:1046A00023462846314605F0E3FA03460C461A46EF
:1046B00023464FF00000AD4905F0BCFD03460C4613
:1046C00019462246A84BC3E90A12A74BD3E91801A1
:1046D000D7E9322305F0AEFD03460C4618462146C5
:1046E000A14BD3E90A341A46234605F079FC034668
:1046F0000C46194622469C4BC3E900129A4BD3E95B
:1047000008349A4684F0004B974BD3E90A341A4692
:1047100023465046594605F063FC03460C461946AD
:104720002246914BC3E90212D7F8B8303B67D7F85D
:10473000BC3083F000437B67D7E93223D7E91C0103
:1047400005F078FD03460C4618462146864BD3E912
:104750000A341A46234605F043FC03460C46194624
:104760002246814BC3E904127F4BD3E90A347E4AC7
:10477000C2E906347C4BD3E90234BB6684F00043C3
:10478000FB66794BD3E914341A462346D7E91A015C
:1047900005F026FC03460C461D462646724BD3E91F
:1047A00006343B6684F000437B666F4BD3E91634D6
:1047B0001A462346D7E9180105F012FC03460C46B9
:1047C0001A4623462846314605F054FA03460C465D
:1047D00019462246644BC3E90812654B93ED0C7BE6
:1047E000634B93ED0A6BB0EE461AF0EE661AB0EE2C
:1047F000470AF0EE670AFFF77FF959EC108B5A4B26
:10480000D3E90034BB6584F00043FB65564BD3E924
:1048100014341A462346D7E9160105F0E1FB034696
:104820000C461D462646504BD3E904343B6584F0C4
:1048300000437B654C4BD3E916341A462346D7E92F
:10484000140105F0CDFB03460C461A4623462846C4
:10485000314605F00FFA03460C4618462146424BF6
:10486000D3E910341A46234605F0BAFB03460C463A
:104870001A4623464046494605F0FAF903460C46D7
:1048800019462246384BC3E91412394BD3E90E5668
:10489000354BD3E90801344BD3E910341A4623468B
:1048A00005F09EFB03460C461A4623462846314631
:1048B00005F0DEF903460C46194622462A4BC3E9A9
:1048C0001612294A4FF000034FF00004C2E90034E9
:1048D000254A4FF000034FF00004C2E90234224A97
:1048E0004FF000034FF00004C2E904341E4A4FF0B9
:1048F00000034FF00004C2E906341B4BD3E9145601
:10490000194BD3E9140114A3D3E9002305F0B2F93C
:1049100003460C461846214611A3D3E9002305F0AF
:1049200089FC03460C4644EC173BB0EE470AF0EE18
:10493000670A02F0F1FA51EC100B09A3D3E9002346
:1049400005F04EFB03460C461A46234628463146E0
:1049500010E000BFAFF30080182D4454FB21094044
:10496000182D4454FB211940601400200000F03F32
:10497000D014002005F07CF903460C46BB6424F0FB
:104980000043FB6401231C46B1A3D3E90023D7E90C
:10499000120105F0B5FD0346002B01D100231C4692
:1049A000E3B283F00103DBB2002B00F0E381A64BFE
:1049B000D3E916343B6424F000437B6401231C4696
:1049C00097A3D3E90023D7E9100105F099FD034629
:1049D000002B01D100231C46E3B283F00103DBB2BC
:1049E000002B00F0C781984BD3E912018EA3D3E9C5
:1049F000002305F071FD0346002B43D00023C7F8C8
:104A0000A4303AE0D7F8A4300433904A1933DB00DD
:104A10001344D3E900018C4BD3E916341A462346DC
:104A200005F0DEFA03460C461D462646874AD7F8AF
:104A3000A4301933DB001344D3E90001824BD3E9DE
:104A400014341A46234605F0CBFA03460C461A46A0
:104A500023462846314605F00DF903460C46184614
:104A60002146794AD7F8A430DB001344C3E900019A
:104A7000D7F8A4300133C7F8A430D7F8A430032BFB
:104A8000C0DD77E1704BD3E9120167A3D3E90023BE
:104A900005F036FD0346002B4ED06B4BD3E91201D7
:104AA00063A3D3E9002305F017FD0346002B43D091
:104AB0000023C7F8A4303AE0D7F8A4300433634A9F
:104AC0002133DB001344D3E900015F4BD3E91634F3
:104AD0001A46234605F084FA03460C461D46264630
:104AE0005A4AD7F8A4302133DB001344D3E900013C
:104AF000554BD3E914341A46234605F071FA0346A0
:104B00000C461A4623462846314605F0B3F80346BC
:104B10000C46184621464C4AD7F8A430DB00134413
:104B2000C3E90001D7F8A4300133C7F8A430D7F89F
:104B3000A430032BC0DD1DE1434BD3E912013CA39C
:104B4000D3E9002305F0DCFC0346002B4ED03E4B9E
:104B5000D3E9120138A3D3E9002305F0BDFC0346D5
:104B6000002B43D00023C7F8A4303AE0D7F8A43094
:104B70000433364A2933DB001344D3E90001324BB6
:104B8000D3E916341A46234605F02AFA03460C46A2
:104B90001D4626462D4AD7F8A4302933DB0013449E
:104BA000D3E90001284BD3E914341A46234605F013
:104BB00017FA03460C461A4623462846314605F0A6
:104BC00059F803460C46184621461F4AD7F8A43028
:104BD000DB001344C3E90001D7F8A4300133C7F860
:104BE000A430D7F8A430032BC0DDC3E0164BD3E9C3
:104BF000120111A3D3E9002305F082FC0346002B28
:104C00006AD0114BD3E912010DA3D3E9002305F0BB
:104C100063FC0346002B5FD00023C7F8A43056E0A6
:104C2000182D4454FB212940ABAAAAAAAAAA3040B5
:104C30008EE3388EE3383640721CC7711CC73B4088
:104C4000ABAAAAAAAAAA404060140020280000200B
:104C5000182D4454FB21F93FD7F8A4300433AE4A51
:104C60003133DB001344D3E90001AC4BD3E91634F4
:104C70001A46234605F0B4F903460C461D4626465F
:104C8000A54AD7F8A4303133DB001344D3E900013F
:104C9000A24BD3E914341A46234605F0A1F9034682
:104CA0000C461A4623462846314604F0E3FF0346E5
:104CB0000C4618462146994AD7F8A430DB00134425
:104CC000C3E90001D7F8A4300133C7F8A430D7F8FE
:104CD000A430032BC0DD4DE0904BD3E912018CA32F
:104CE000D3E9002305F00CFC0346002B42D000233F
:104CF000C7F8A4303AE0D7F8A4300433864A3933F1
:104D0000DB001344D3E90001844BD3E916341A467F
:104D1000234605F065F903460C461D4626467E4AA5
:104D2000D7F8A4303933DB001344D3E900017B4BBF
:104D3000D3E914341A46234605F052F903460C46CB
:104D40001A4623462846314604F094FF03460C4693
:104D500018462146714AD7F8A430DB001344C3E952
:104D60000001D7F8A4300133C7F8A430D7F8A43035
:104D7000032BC0DD694BD3E90C01674BD3E9CA347F
:104D80001A46234605F0BCFB0346002B06D0624BB7
:104D9000D3E9CA34614AC2E90C3412E05F4BD3E96B
:104DA0000C015D4BD3E9CC341A46234605F08AFB4F
:104DB0000346002B05D0584BD3E9CC34574AC2E9FF
:104DC0000C34564BD3E90C01544BD3E900341A464A
:104DD000234604F04FFF03460C4618462146504B2D
:104DE000D3E910341A46234604F042FF03460C462A
:104DF000C7E93234484BD3E9CA341A462346D7E9C7
:104E00002C0105F07DFB0346002B05D0424BD3E976
:104E1000CA34C7E92C3410E03F4BD3E9CC341A46EE
:104E20002346D7E92C0105F04DFB0346002B04D0A7
:104E3000394BD3E9CC34C7E92C34384BD3E90201E0
:104E4000D7E92C2304F016FF03460C4618462146EA
:104E5000334BD3E912341A46234604F009FF0346C4
:104E60000C46C7E930342D4BD3E90E012A4BD3E968
:104E7000CA341A46234605F043FB0346002B06D0EE
:104E8000254BD3E9CA34254AC2E90E3412E0234B3C
:104E9000D3E90E01204BD3E9CC341A46234605F062
:104EA00011FB0346002B05D01B4BD3E9CC341B4A26
:104EB000C2E90E34194BD3E90E01184BD3E904347F
:104EC0001A46234604F0D6FE03460C4618462146F1
:104ED000134BD3E914341A46234604F0C9FE0346A3
:104EE0000C46C7E92E340C4BD3E9CA341A46234684
:104EF000D7E92A0105F004FB0346002B12D0064B2C
:104F0000D3E9CA34C7E92A341DE000BFAFF30080FB
:104F1000ABAAAAAAAAAA4040280000206014002038
:104F2000D0140020AC4BD3E9CC341A462346D7E941
:104F30002A0105F0C7FA0346002B04D0A64BD3E99B
:104F4000CC34C7E92A34A54BD3E90601D7E92A2393
:104F500004F090FE03460C4618462146A04BD3E9C8
:104F600016341A46234604F083FE03460C461946BF
:104F700022469A4BC3E91812974BD3E9B8341A4624
:104F80002346D7E9320105F02BF803460C46C7E962
:104F90002A34944BD3E90001D7E92A2304F06AFEAE
:104FA00003460C46194622468C4BC3E908128A4B2D
:104FB00003F58663D3E90001884BD3E908341A4628
:104FC000234605F00DF803460C4619462246834B4E
:104FD000C3E90C12814BD3E908017F4BD3E9BA3402
:104FE0001A46234605F08CFA0346002B11D07B4B62
:104FF000D3E90801784BD3E9BA341A46234604F0C2
:1050000037FE03460C4619462246744BC3E9081284
:1050100025E0724BD3E908016F4BD3E9B6341A4649
:10502000234605F063FA0346002B07D06B4A4FF086
:1050300000034FF00004C2E9083410E0674BD3E9E5
:105040000801654BD3E9B6341A46234604F010FE36
:1050500003460C4619462246604BC3E908125F4BD3
:10506000D3E90C015D4BD3E90834012215461A46F9
:10507000234605F01DFA0346002B01D000231D46F0
:10508000EBB287F8A330554BD3E908014FF000028B
:105090004FF0000305F016FA0346002B06D04F4AE6
:1050A0004FF00003504CC2E908342CE04B4BD3E9DD
:1050B00008014FF000024FF0000305F021FA03460B
:1050C000002B06D0454A4FF00003484CC2E9083493
:1050D00019E0424BD3E908014FF000024FF0000302
:1050E00005F0E6F90346002B07D03C4A4FF00003D9
:1050F0004FF00004C2E9083405E03D4BD3E9003429
:10510000364AC2E90834344BD3E9B2341A4623464E
:10511000D7E9320104F064FF03460C46C7E9323494
:105120002E4B93ED087BB0EE470AF0EE670A01F0D4
:10513000FFF90346002B06D04FF000034FF00004A8
:10514000C7E92C340CE0254B93ED087B9FED201B29
:10515000B0EE470AF0EE670A01F0C8FF87ED2C0BAE
:105160004FF000024FF00003D7E9320105F0AAF931
:105170000346002B06D0194A4FF000031A4CC2E92F
:105180000C343DE04FF000024FF00003D7E932014C
:1051900005F0B6F90346002B06D0104A4FF0000385
:1051A000124CC2E90C342BE04FF000024FF0000328
:1051B000D7E9320105F07CF90346002B1AD0074AE3
:1051C0004FF000034FF00004C2E90C3418E000BFB8
:1051D0000000000000007040280000206014002043
:1051E000D0140020401400200000F0BF0000F03F69
:1051F00060150020644BD3E90034644AC2E90C34E2
:10520000624B93ED0C7BB0EE470AF0EE670A01F0BB
:105210008FF90346002B07D05C4A4FF000034FF094
:105220000004C2E90C3411E0584B93ED0C7B9FED68
:10523000541BB0EE470AF0EE670A01F057FFB0EEDC
:10524000407AF0EE607A514B83ED0C7B97F8A330F7
:10525000002B53D04FF000024FF00003D7E92C0190
:1052600005F030F90346002B12D0D7F8B030BB63FD
:10527000D7F8B43083F00043FB63D7E90E0105F0A3
:1052800087F90346DBB25B42DBB25BB21D4607E047
:10529000D7E92C0105F07CF90346DBB25BB21D4671
:1052A0003A4BD3E90C014FF000024FF0000305F038
:1052B00009F90346002B10D0344BD3E90C343B637F
:1052C00084F000437B63D7E90C0105F061F90346E4
:1052D000DBB25B42DBB25BB209E02C4BD3E90C34AE
:1052E0001846214605F054F90346DBB25BB29D42F5
:1052F00004D1274BD3E9BC34C7E93234244B03F53E
:105300008763D3E90001D7E9322304F069FE03463D
:105310000C46194622461D4BC3E908121D4BD3E922
:1053200000011A4BD3E908341A46234604F0A2FCC4
:1053300003460C4619462246164BC3E90012154B8C
:10534000D3E900341A462346D7E92A0104F092FC37
:1053500003460C46C7E92A340D4BD3E9BA341A4642
:105360002346D7E92A0105F0CBF80346002B13D0DA
:10537000074BD3E9BA34C7E92A341EE0AFF3008003
:105380000000000000007040601500206014002044
:1053900028000020401400209C4BD3E9B6341A4664
:1053A0002346D7E92A0105F08DF80346002B04D0E7
:1053B000964BD3E9B634C7E92A34954BD3E9003488
:1053C000012215461A462346D7E92A0105F098F826
:1053D0000346002B01D100231D46EBB287F8A33012
:1053E0008A4B03F58863D3E900341A462346D7E98C
:1053F0002A0105F067F80346002B06D0834B03F51E
:105400008863D3E90034C7E92A3497F8A330002B26
:1054100004D17F4AD7E92A34C2E900347D4BD3E96D
:1054200000017D4BD3E908341A46234604F022FCE0
:1054300003460C4619462246764BC3E90012734BCD
:10544000D3E9B8341A462346D7E9300104F0C8FD41
:1054500003460C46C7E92A346E4BD3E90201D7E96B
:105460002A2304F007FC03460C46194622466A4BE1
:10547000C3E90812654B03F58663D3E90001664B67
:10548000D3E908341A46234604F0AAFD03460C4625
:1054900019462246604BC3E90C125F4BD3E9080161
:1054A0005A4BD3E9BA341A46234605F029F8034685
:1054B000002B11D0584BD3E90801544BD3E9BA342F
:1054C0001A46234604F0D4FB03460C4619462246EE
:1054D000514BC3E9081225E04F4BD3E908014B4B70
:1054E000D3E9B6341A46234605F000F80346002BEC
:1054F00007D0494A4FF000034FF00004C2E90834D6
:1055000010E0454BD3E90801404BD3E9B6341A46C5
:10551000234604F0ADFB03460C46194622463E4B9B
:10552000C3E908123C4BD3E90C013B4BD3E90834E7
:10553000012215461A46234604F0BAFF0346002B03
:1055400001D000231D46EBB287F8A330324BD3E9DC
:1055500008014FF000024FF0000304F0B3FF0346D0
:10556000002B06D02C4A4FF000032C4CC2E9083423
:105570002CE0294BD3E908014FF000024FF0000363
:1055800004F0BEFF0346002B06D0234A4FF0000371
:10559000234CC2E9083419E01F4BD3E908014FF04E
:1055A00000024FF0000304F083FF0346002B07D0F6
:1055B000194A4FF000034FF00004C2E9083405E037
:1055C000184BD3E90034144AC2E908340F4BD3E92D
:1055D000B2341A462346D7E9300104F001FD0346F0
:1055E0000C46C7E930340C4B93ED087BB0EE470A0C
:1055F000F0EE670A00F09CFF0346002B14D04FF03A
:1056000000034FF00004C7E92C341AE02800002002
:105610003015002040140020601400200000F0BF6E
:105620000000F03F60150020834B93ED087B9FED59
:10563000801BB0EE470AF0EE670A01F057FD87EDD8
:105640002C0B4FF000024FF00003D7E9300104F0BB
:1056500039FF0346002B06D0774A4FF00003774C02
:10566000C2E90C342AE04FF000024FF00003D7E902
:10567000300104F045FF0346002B06D06E4A4FF080
:1056800000036F4CC2E90C3418E04FF000024FF0F9
:105690000003D7E9300104F00BFF0346002B07D0CD
:1056A000654A4FF000034FF00004C2E90C3405E0F6
:1056B000644BD3E90034604AC2E90C345E4B93ED8D
:1056C0000C7BB0EE470AF0EE670A00F031FF0346AC
:1056D000002B07D0584A4FF000034FF00004C2E9F6
:1056E0000C3411E0544B93ED0C7B9FED511BB0EE4D
:1056F000470AF0EE670A01F0F9FCB0EE407AF0EEEE
:10570000607A4D4B83ED0C7B97F8A330002B53D080
:105710004FF000024FF00003D7E92C0104F0D2FE55
:105720000346002B12D0D7F8B030BB62D7F8B430A4
:1057300083F00043FB62D7E90A0104F029FF034626
:10574000DBB25B42DBB25BB21D4607E0D7E92C015E
:1057500004F01EFF0346DBB25BB21D46364BD3E9B5
:105760000C014FF000024FF0000304F0ABFE0346C3
:10577000002B10D0304BD3E90C343B6284F0004353
:105780007B62D7E9080104F003FF0346DBB25B420A
:10579000DBB25BB209E0284BD3E90C341846214652
:1057A00004F0F6FE0346DBB25BB29D4204D1264B09
:1057B000D3E9BC34C7E93034234B03F58763D3E91D
:1057C0000001D7E9302304F00BFC03460C461A4ACB
:1057D000C2E908341D4BD3E90201174BD3E9083461
:1057E0001A46234604F046FA03460C46174AC2E915
:1057F0000234164BD3E902341A462346D7E92A016C
:1058000004F038FA03460C46C7E92A340E4BD3E9B4
:10581000BA341A462346D7E92A0104F071FE03463A
:10582000002B15D0084BD3E9BA34C7E92A3420E05D
:105830000000000000007040601400200000F0BF75
:105840000000F03F601500202800002040140020D8
:10585000A94BD3E9B6341A462346D7E92A0104F006
:1058600031FE0346002B04D0A34BD3E9B634C7E97D
:105870002A34A24BD3E90234012215461A462346A4
:10588000D7E92A0104F03CFE0346002B01D1002396
:105890001D46EBB287F8A330974B03F58863D3E935
:1058A00000341A462346D7E92A0104F00BFE0346CA
:1058B000002B06D0904B03F58863D3E90034C7E989
:1058C0002A3497F8A330002B04D18C4AD7E92A3424
:1058D000C2E902348A4BD3E902018A4BD3E9083486
:1058E0001A46234604F0C6F903460C46844AC2E928
:1058F0000234814BD3E9B8341A462346D7E92E0146
:1059000004F06EFB03460C46C7E92A347C4BD3E90E
:105910000401D7E92A2304F0ADF903460C46794A7D
:10592000C2E90834744B03F58663D3E90001754B73
:10593000D3E908341A46234604F052FB03460C46CA
:10594000704AC2E90C346F4BD3E908016A4BD3E9C2
:10595000BA341A46234604F0D3FD0346002B0FD079
:10596000684BD3E90801644BD3E9BA341A4623469D
:1059700004F07EF903460C46624AC2E9083423E08B
:10598000604BD3E908015C4BD3E9B6341A46234691
:1059900004F0ACFD0346002B07D05A4A4FF0000339
:1059A0004FF00004C2E908340EE0564BD3E9080179
:1059B000514BD3E9B6341A46234604F059F903464D
:1059C0000C46504AC2E908344E4BD3E90C014D4B0A
:1059D000D3E90834012215461A46234604F068FD2F
:1059E0000346002B01D000231D46EBB287F8A330FD
:1059F000444BD3E908014FF000024FF0000304F0DC
:105A000061FD0346002B06D03E4A4FF000033E4C9A
:105A1000C2E908342CE03B4BD3E908014FF0000207
:105A20004FF0000304F06CFD0346002B06D0354A0E
:105A30004FF00003354CC2E9083419E0314BD3E98B
:105A400008014FF000024FF0000304F031FD03465F
:105A5000002B07D02B4A4FF000034FF00004C2E99F
:105A6000083405E02A4BD3E90034264AC2E9083459
:105A7000214BD3E9B2341A462346D7E92E0104F06C
:105A8000AFFA03460C46C7E92E341E4B93ED087B54
:105A9000B0EE470AF0EE670A00F04AFD0346002B1D
:105AA00006D04FF000034FF00004C7E92C340CE09F
:105AB000144B93ED087B9FED0E1BB0EE470AF0EE02
:105AC000670A01F013FB87ED2C0B4FF000024FF03B
:105AD0000003D7E92E0104F0F5FC0346002B19D092
